S01900005379735469636B5F426C696E6B5F4153462E73726563B9
S113000098240020510600004D060000250600003B
S113001000000000000000000000000000000000DC
S11300200000000000000000000000004D06000079
S113003000000000000000004D06000065070000FD
S11300404D0600004D0600004D0600004D06000060
S11300504D0600004D0600004D0600004D06000050
S11300604D0600004D0600004D0600004D06000040
S11300704D060000BD010000CD010000DD010000BF
S1130080ED010000FD0100000D0200001D02000052
S11300902D0200004D0600004D0600004D06000034
S11300A04D06000008B5064B064803331B1A062B01
S11300B000D808BD044B002BFBD09847F9E7C04695
S11300C0F8080000F80800000000000008B5074820
S11300D0074B1B1A9B10DA0FD318591000D108BD17
S11300E0044A002AFBD09047F9E7C046F80800000C
S11300F0F80800000000000010B5074C2378002B1E
S113010009D1FFF7CFFF054B002B02D0044800E0D4
S113011000BF0123237010BD38040020000000003C
S1130120F808000008B5094B002B03D0084809491A
S113013000E000BF08480368002B03D0074B002BE6
S113014000D09847FFF7C2FF08BDC046000000007A
S1130150F80800003C040020F8080000000000003B
S113016038B58000144BC4582368DD682D0C237EF9
S11301701D40637E1D40EA0705D5201CA3689847EF
S1130180012322689373AB0705D5201CE2689047CE
S1130190022322689373EB0605D5201C226990473D
S11301A0102322689373AB0605D5201C626990471F
S11301B0236820229A7338BD7404002008B50020F7
S11301C0014B984708BDC0466101000008B50120F5
S11301D0014B984708BDC0466101000008B50220E4
S11301E0014B984708BDC0466101000008B50320D3
S11301F0014B984708BDC0466101000008B50420C2
S1130200014B984708BDC0466101000008B50520B0
S1130210014B984708BDC0466101000008B506209F
S1130220014B984708BDC0466101000008B507208E
S1130230014B984708BDC046610100000C4B1B6888
S1130240002B10D1EFF31083002B09D172B6BFF34A
S11302505F8F0022074B1A700122074B1A7002E0CD
S11302600022054B1A70024B1A6801321A6070475B
S1130270540400200000002058040020084B1A6891
S1130280013A1A601B68002B09D1064B1B78002B1E
S113029005D00122044B1A70BFF35F8F62B670471A
S11302A0540400205804002000000020F0B583B05E
S11302B001AC012565700027A77025700E20211C54
S11302C0064EB0478022D201054B9A6127706570B3
S11302D00F20211CB04703B0F0BDC046E50200006A
S11302E00044004100B583B001AB80221A700A7843
S11302F05A704A789A708A78DA70191C014B9847B8
S113030003B000BDF505000070B50C4B1C6A017804
S1130310857840780122104080014026B44304438C
S11303202A40D00180229443221C0243032001402E
S11303300902034802400A431A6270BD00080040E3
S1130340FFFCFFFF07283DD880001F4B1B589F462A
S1130350002038E01D4B196A02220A431A62002069
S113036031E01A4B996902220A439A6100202AE07B
S1130370164B1A6992B202210A431A82002022E023
S1130380124B5A6992B202210A439A8200201AE05F
S11303900F4B196802220A431A601A680D4B1A405F
S11303A00A4B9A84191C1022CB681A42FCD0084AC2
S11303B09168064BD96251689962126892B29A8424
S11303C0002000E017207047AC080000000800403F
S11303D05C0400207FFF000030B585B0144A154B43
S11303E09A60154B5A681E218A435A6003A8002458
S11303F04470012585700470104B98470620104BFB
S11304009847104B9847104B1C725C729C72019574
S11304106A4654700623137014725472002069469D
S11304200A4B984700200A4B984705B030BDC04698
S1130430103600000008004000400041090300009D
S11304404503000055040000000400407904000046
S113045029050000064B996908220A439A61012282
S1130460044B1A70191C0B681342FCD17047C04628
S113047000040040000C0040F8B5061C071C0D7871
S11304802D0205434B78002B02D08023DB021D4351
S11304904B7A002B02D080231B031D434C68012C94
S11304A017D9631E1C420FD1022C06D90223002245
S11304B001325B009C42FBD800E000221702374364
S11304C080235B031D4304E02702374380239B0200
S11304D01D430B7A002B02D080239B031D430E4A3D
S11304E013681904FCD40D4B98470D4B1E700A4930
S11304F00B681A04FCD4084B9F601A1C1368190477
S1130500FCD4054B5968802252020A4015435D60B1
S1130510044B9847F8BDC046000C00403D02000063
S1130520080C00407D02000010B5041C0A4A136840
S11305301904FCD4094B9847094B1C70064A1368EC
S11305401904FCD4044B5968802252020A435A60AD
S1130550044B984710BDC046000C00403D0200000B
S1130560040C00407D02000030B5D4780023002C38
S11305701ED11378802B04D01B06802464022343ED
S113058000E0002354780225AC430AD19478002C6F
S113059003D18024A402234302E0C024E4022343C1
S11305A041605478013CE4B2012C01D8104C234042
S11305B00D042D0CA024E4052C431C4384620D0C73
S11305C0D02424062C431C438462D478002C0DD1FF
S11305D05C0305D59378012B01D1816100E0416171
S11305E05378013BDBB2012B00D8816030BDC0469B
S11305F0FFFFFBFF08B5031C0A1CC10900200029EA
S113060003D15809C001044940181F210B4001219E
S11306109940024B984708BD004400416905000019
S11306207047C046FEE7C04608B5044B9847044BE4
S11306309847044B9847044B984708BDD9030000DA
S1130640AD0200002106000021060000FEE7C046BE
S113065010B5194B194A9A4203D0194B164A9A42BB
S113066004D3184B184A9A4210D31BE0174B144872
S11306700330C01A80080130800000230E490F4A5D
S1130680D458CC5004338342FAD1EAE70E4B1A1DF6
S11306900C490331891A890889005218002102C3C0
S11306A09342FCD10A4B7F210A4A8A439A600A4B3F
S11306B098470A4B9847FEE700000020F80800001E
S11306C03804002094040020380400200400002092
S11306D000ED00E000000000AD070000010700008D
S11306E000B583B001A901234B7000228A700B70FE
S11306F00E20024B984703B000BDC046E50200003F
S113070038B5104B9847104B9847104B9847104BEF
S1130710104A5A60104A106A0002000AC0210906F1
S11307200143116200229A6007221A600B4A0C4DA1
S11307308024E401101C00211368FA2BFCD9EC611D
S11307400160F9E729060000D9030000E106000072
S113075010E000E03F1F000000ED00E07004002006
S113076000440041024B1A6801321A607047C046C7
S11307707004002008B5011C0020021C031C00F0BA
S11307803BF808BD38B5074B074C1D1CE41AA410F0
S1130790002C04D0013CA300EB589847F8E700F084
S11307A0A3F838BDF4080000F808000070B50E4B3B
S11307B00E4D0024ED1AAD101E1CAC4204D0A30053
S11307C0F35898470134F8E700F084F8084B094DD2
S11307D00024ED1AAD101E1CAC4204D0A300F35843
S11307E098470134F8E770BDE0080000E008000015
S11307F0E0080000E8080000F7B51E1C234B051CA8
S11308001B6801911C1CFC34E06C171C002803D1EC
S1130810A62252009818E06443681F2B16DD1C4B77
S1130820002B02D1012040422EE0C820400000E00D
S113083000BF0028F6D0E26C00230260C4225200FC
S11308404360E0648350C622520083504368002D05
S113085013D09C000419221C88321760C2277F0021
S1130860C2195768012199400F43FC345760E66070
S1130870022D02D19468214391605A1C019F0233D6
S11308809B0042601F500020FEBDC046CC08000003
S11308900000000008B5034B002B02D00248FFF70C
S11308A069FF08BD00000000850700007003000018
S11308B0C4030000C40300005003000062030000EE
S11308C08003000054030000900300001000002087
S11308D043000000F8B5C046F8BC08BC9E4670470B
S11308E09508000025010000F8B5C046F8BC08BC16
S10B08F09E467047F900000068
S11308F801000000000000001000002000000000BB
S113090800000000FC02002064030020CC03002047
S113091800000000000000000000000000000000CB
S113092800000000000000000000000000000000BB
S113093800000000D00800000000000000000000D3
S1130948000000000000000000000000000000009B
S1130958000000000000000000000000000000008B
S1130968000000000000000000000000000000007B
S1130978000000000000000000000000000000006B
S1130988000000000000000000000000000000005B
S1130998000000000000000000000000000000004B
S11309A8000000000000000001000000000000003A
S11309B80E33CDAB34126DE6ECDE05000B000000FF
S11309C8000000000000000000000000000000001B
S11309D8000000000000000000000000000000000B
S11309E800000000000000000000000000000000FB
S11309F800000000000000000000000000000000EB
S9030651A5
